:03000000020A6889
:0C0A6800787FE4F6D8FD758174020AAFB7
:100C3C00C0F9A4B0999282F88090FFC68C883F06C8
:100C4C005B4F666D7D077F6F777C395E797140797C
:080C5C00243019120278001087
:100B4A00014700012100012200015B00022F000081
:100B5A00024C0000012C00012900014E00022A0269
:080B6A00580260012C0120017A
:100C6400AF03AE0212069A7C007D0A12069A743C07
:0C0C74002DF582740C3CF583E493F5A090
:050C8000007FF7DFFE1C
:010C8500224C
:100CA4005389F0438901758AE0758CB1C28DD28C69
:050CB400D2A9D2AF221D
:030CE500020CA45A
:100CCE00C374FF9FFF74FF9EC28C8F8AF58CD28CEB
:010CDE0022F3
:03000B00020BDB0A
:070BDB00C0E0C0D075D00896
:100BE200E52024FE600E04701EC296AF2BAE2A12C0
:100BF2000CCE8013D296C374B0952BFF7404952A41
:090C0200FE120CCE752000052045
:050C0B00D0D0D0E03262
:100CB900538EBF53890F758B24758DFAC28FD28ECF
:050CC900D2ABD2AF2206
:08000300120CB9E4FF020C101D
:03001B00020C864E
:100C8600C0E0C0F0C083C082C0D075D0181209275A
:0E0C960012001ED0D0D082D083D0F0D0E03239
:100870008E108F11AB05AA04C2E8C2E9C2EA7C035C
:100880007DE8120C6875A0FFD2E8C2E9C2EAAE109A
:10089000AF117C007D6412069A7C007D0A12069AD4
:1008A000745A2DF582740C120C7975A0FFC2E8D22F
:1008B000E9C2EAAE10AF117C007D0A120C6875A087
:1008C000FFD2E8D2E9C2EAAE10AF11120C6B75A0EC
:1008D000FFC2E8C2E9D2EA7C037DE8120C6475A08D
:1008E000FFD2E8C2E9D2EA7C007D64AF03AE021217
:1008F000069A7C007D0A12069A745A2DF582740CB1
:10090000120C7975A0FFC2E8D2E9D2EA7C007D0A18
:10091000120C6475A0FFD2E8D2E9D2EAAE02AF03AE
:07092000120C6B75A0FF2211
:1009C900D3E542952EE541952D4039E52E9542FF17
:1009D900E52D9541FEC3EF94FEEE94FF4009D3EF58
:1009E9009402EE94004055C3E52B94B0E52A940493
:1009F9004008752A04752BB08042052BE52B703C05
:100A0900052A8038C3E52E9542FFE52D9541FEC3A1
:100A1900EF94FEEE94FF4009D3EF9402EE94004068
:100A29001BD3E52B940AE52A94005008752A007512
:100A39002B0A8008E52B152B7002152AC3E5619452
:100A4900B0E560940440067560047561B0D3E56152
:0F0A59009464E560940050067560007561642236
:100AF400E4F526F525F524F523F540F53FF53EF517
:100B04003DF54BF54AF549F548F556F555F554F5D7
:100B140053F55FF55EF55DF55CF552F551F550F56D
:100B24004F75468F7545C27544F575433C753CBD9C
:100B3400753B37753A8675393575386F7537127563
:060B4400368375353A22EC
:1007B7008F268E258D248C2385174085163F85151A
:1007C7003E85143DAB40AA3FA93EA83D1203E08FEA
:1007D7004B8E4A8D498C48AF52AE51AD50AC4FABA2
:1007E7004BAA4AA949A8481203E48F528E518D504B
:1007F7008C4FAB3CAA3BA93AA8391204D5C004C018
:1008070005C006C007AF4BAE4AAD49AC48AB46AAD8
:1008170045A944A8431204D5D003D002D001D00083
:100827001203E4C004C005C006C007AB56AA55A909
:1008370054A853AF4BAE4AAD49AC481203E0AB38AE
:10084700AA37A936A8351204D5D003D002D001D0D3
:10085700001203E48F348E338D328C31854B5685ED
:090867004A558549548548532285
:1006FD00120CE5120003120AF4120B947527008FE9
:10070D0028AC27AD28E41205E07B487AE179FA7828
:10071D003F1204D51206198E2D8F2EE560C313F5E9
:10072D0041E56113F542E52E25E0FDE52D33FCAFE6
:10073D0061AE60120870AC60AD61E41205E0C004FA
:10074D00C005C006C007E528AE277802C333CE33F7
:10075D00CED8F9FDAC06E41205E08F178E168D1577
:10076D008C14D007D006D005D0041207B712061985
:10077D008F5A8E598D588C57EF252BF52BEE352A28
:10078D00F52AC3E52B94B0E52A94044006752A0496
:10079D00752BB0D3E52B940AE52A9400400302078C
:0A07AD0006752A00752B0A020706E4
:100B7200017000016400016500017400026C000054
:100B82000271000001670001660001730002620049
:010B92000062
:100C1000D290D291D292EF7004F574800375740172
:100C2000A290E433F564A291E433F565E4F56CF544
:0C0C30006DF571F572F567F566F573223D
:10092700E4FFE5747017A29033656470030209B49D
:1009370020906E3091030F80687FFF8064A290E45F
:10094700336564606830902EE565B4010520910237
:100957007F01E56570053091027FFFA291E433B511
:1009670065052091027F01A291E4336565703230FD
:10097700912F7FFF802BE565B401052091027FFF52
:10098700E56570053091027F01A291E433B56505F5
:100997002091027FFFA291E433B565053091027F74
:1009A70001A290E433F564A291E433F56520921136
:1009B700EF70047F02800ABF01027F03BFFF027F3F
:0109C700FD32
:0109C800220C
:10001E00E4FBEF64016003020132E57024FE6036FA
:10002E001460511460711470030200D02404600334
:10003E00020127740A2569F569E43568F568D3E588
:10004E006994FFE568648094805003020127E4F50B
:10005E0068F569020127740A256BF56BE4356AF5BC
:10006E006AD3E56994FFE5686480948050030201C9
:10007E0027020122740A256FF56FE4356EF56ED3F3
:10008E00E56994FFE568648094805003020127E4DB
:10009E00F56EF56F020127740A2569F569E4356876
:1000AE00F568D3E56994FFE568648094804005E4C3
:1000BE00F568F569AC68AD698C6A8D6B8C6E8D6F69
:1000CE00805774142569F569E43568F568C3E569E8
:1000DE0094FFE56864809480403FE4F568F56974A8
:1000EE0014256FF56FE4356EF56EC3E56F94FFE57D
:1000FE006E648094804022E4F56EF56F7414256B67
:10010E00F56BE4356AF56AC3E56B94FFE56A6480C6
:10011E0094804005E4F56AF56B74642561F561E43D
:10012E003560F560EFF46003020218E57024FE609E
:10013E002814603D14605514607924046003020293
:10014E000C74F62569F56974FF3568F568C364802B
:10015E009480400302020C802B74F6256BF56B74B1
:10016E00FF356AF56AC364809480400302020C80F6
:10017E001374F6256FF56F74FF356EF56EC36480DC
:10018E009480507A7568007569FF807274F62569DF
:10019E00F56974FF3568F568C36480948050067500
:1001AE0068007569FFAC68AD698C6A8D6B8C6E8D5D
:1001BE006F804B74EC2569F56974FF3568F568C37B
:1001CE006480948050387568007569FF74EC256FF3
:1001DE00F56F74FF356EF56EC364809480501F7595
:1001EE006E00756FFF74EC256BF56B74FF356AF559
:1001FE006AC3648094805006756A00756BFF749CA8
:10020E002561F56174FF3560F560BF030B740F2532
:10021E0061F561E43560F560BFFD0C74F12561F5A3
:10022E006174FF3560F560EF64027050C3E56D9444
:10023E0010E56C648094A75008056DE56D7002059D
:10024E006CE56D6414456C7003756701D3E57294AB
:10025E0000E571648094804010D3E5729496E57148
:10026E00648094805003757301E56D64587004E5E5
:10027E006C64027071756601F567806AC3E56D94F2
:10028E0014E56C648094805011E4F56CF56DF5679F
:10029E00F566F573F571F572804CE5676401703E95
:1002AE00E5737011C3E5716480948040080572E5B2
:1002BE007270020571E573B40110D3E5729496E580
:1002CE0071648094805003757302E5737010D3E5EA
:1002DE00729496E571648094804003E4F567E56658
:1002EE00B40103E4F566D3E56D9414E56C64809473
:1002FE008050030203DAE5677032D3E5729496E517
:10030E0071648094804025E56D9458E56C6480940A
:10031E008250190570E570C3940440037570017B1B
:10032E0001E4F56CF56DF571F572F573E573640224
:10033E007043D3E5729400E571648094804036D3A7
:10034E00E5729496E571648094805029E570B40549
:10035E0003E4F570E570B40403757005E570C3949D
:10036E000450037570047B02E4F56CF56DF571F5C0
:10037E0072F567F573E566B40129C3E56D9458E52A
:10038E006C64809482401C0563E56370020562AE66
:10039E0062FF7C007DC812069AED4C7006F562F580
:1003AE00637B04E5667025C3E56D9458E56C648047
:1003BE0094824018E4F570F568756920F56A756BDE
:0E03CE0020F56E756F207B03F56CF56DAF03A7
:0103DC0022FE
:050CDF00007F16DFFE9E
:010CE40022ED
:0B000E00120CDFD2B5120CDFC2B522CD
:100B9400E4FEFDC293D29412000EC29412000EC25F
:100BA4009412000ED294FC12000EEE25E0FE309555
:100BB400034306010CBC08EFE4FCEDC313FD3095C0
:100BC4000343058012000E0CBC08EFD293EEB5056A
:060BD40003FF80027F0018
:010BDA0022F8
:1003DD00020685E86480F8E933E83360110460F0C3
:1003ED00ED33EC337009E8FCE9FDEAFEEBFF220486
:1003FD0060DED3EB9FEA9EE99DE8C2E78CF0C2F781
:10040D0095F0400CE8CCF8E9CDF9EACEFAEBCFFB4C
:10041D0012065085D0F05804700320D5B3E804704F
:10042D00075002B2D502068F92D5EC0460F7E4CCEA
:10043D00C0E0C398F8603B94186008400DD0E0FB15
:10044D00020667E4FBFAC9FC8028E830E406E4C93B
:10045D00FBE4CAFCE830E305E4C9CACBFCE8540769
:10046D006010F8C3E913F9EA13FAEB13FBEC13FC74
:10047D00D8F130F52FC3E49CFCEF9BFFEE9AFEED17
:10048D0099FDD0E0FBEF4E4D4C701222DB030206BE
:10049D008CEC2CFCEF33FFEE33FEED33FDED30E74E
:1004AD00EB020667EF2BFFEE3AFEED39FDD0E0FBD8
:1004BD0050130BBB000302068FED13FDEE13FEEF81
:0804CD0013FFEC13FC020667AB
:1004D500EC4D6011E8497017ED33EC3304600DE421
:1004E500FCFFFEFD22E933E8330470F802068512AD
:1004F500065058046009E4CC2481500628500902AE
:10050500068F28400302068CC0E0EB4A7044B98090
:1005150006D0E0FB02067BEF4E701CBD8008EBFFAA
:10052500EAFEE9FD80EBE98DF0A4FEE5F00205BEEB
:10053500E9CDF9EAFEEBFFEF89F0A4FCE5F0CE8901
:10054500F0A42EFFE435F0CD89F0A42DFEE435F0BE
:100555008067EF4E7005BD80D780C3EF8BF0A4ACEC
:10056500F0EE8BF0A42CFCE435F0F8EF8AF0A42C27
:10057500E5F038FCE433CB8DF0A42CFCE5F03BF83A
:10058500EE8AF0A42CFCE5F038F8E433CF89F0A42A
:100595002CFCE5F038CF3400CE89F0A42FFFE5F030
:1005A5003EFEE433C98DF0A42EFEE5F039CD8AF088
:1005B500A42FFFE5F03EFEE43DFD33D0E0FB500700
:1005C5000BBB000F02068FEC2CFCEF33FFEE33FE66
:0605D500ED33FD02066794
:1005DB0075F020800E75F010800575F0087D007E9B
:1005EB00007F003392D530D5031206EFEC33401069
:1005FB00EF33FFEE33FEED33FDEC33FCD5F0ED22A4
:0E060B00E5F0247EA2D513CC92E7CDCEFF22DF
:10061900EDD2E7CD33EC3392D524814006E4FFFED9
:10062900FDFC22FCE4CFCECDCC24E0501174FF8038
:10063900EDC3CC13CCCD13CDCE13CECF13CF0470D5
:07064900F030D5DE0206EFE0
:10065000E9D2E7C933E833F892D5EDD2E7CD33ECF0
:0706600033FC5002B2D52269
:10066700EC30E7100FBF000C0EBE00080DBD0004F4
:100677000BEB6014A2D5EB13FCED92E7FD2274FFA0
:10068700FCFDFEFF22E480F8A2D574FF13FC7D80F9
:03069700E480EF0D
:100A74000206FDE493A3F8E493A34003F68001F295
:100A840008DFF48029E493A3F85407240CC8C33383
:100A9400C4540F4420C8834004F456800146F6DF52
:100AA400E4800B0102040810204080900B4AE47E8D
:100AB400019360BCA3FF543F30E509541FFEE49347
:100AC400A360010ECF54C025E060A840B8E493A30E
:100AD400FAE493A3F8E493A3C8C582C8CAC583CA39
:100AE400F0A3C8C582C8CAC583CADFE9DEE780BEF1
:010B93000061
:10069A00BC000BBE0029EF8DF084FFADF022E4CC44
:1006AA00F875F008EF2FFFEE33FEEC33FCEE9DEC0D
:1006BA00984005FCEE9DFE0FD5F0E9E4CEFD22ED53
:1006CA00F8F5F0EE8420D21CFEADF075F008EF2F9D
:1006DA00FFED33FD4007985006D5F0F222C398FD8E
:0506EA000FD5F0EA222B
:0E06EF00C3E49FFFE49EFEE49DFDE49CFC221C
:00000001FF
