:03000000020AB041
:0C0AB000787FE4F6D8FD75817C020AF71F
:100D3800C0F9A4B0999282F88090FFC68C883F06CB
:100D48005B4F666D7D077F6F777C395E797140797F
:080D580024301912027800108A
:100C4600014900012100012200015D00023100007E
:100C5600024E0000012C00012900015000022A0169
:080C6600F4026601F401200113
:100D6000AF03AE021203547C007D0A1203547438A0
:0C0D70002DF582740D3CF583E493F5A092
:050D7C00007FF7DFFE1F
:010D8100224F
:100DA0005389F0438901758AE0758CB1C28DD28C6C
:050DB000D2A9D2AF2220
:030DE100020DA060
:100DCA00C374FF9FFF74FF9EC28C8F8AF58CD28CEE
:010DDA0022F6
:03000B00020CD70D
:070CD700C0E0C0D075D00899
:100CDE00E52024FE600E04701EC296AF2BAE2A12C3
:100CEE000DCA8013D296C374B0952BFF7404952A47
:090CFE00FE120DCA75200005204C
:050D0700D0D0D0E03265
:100DB500538EBF53890F758B24758DFAC28FD28ED2
:050DC500D2ABD2AF2209
:08000300120DB5E4FF020D0C23
:03001B00020D8251
:100D8200C0E0C0F0C083C082C0D075D018120A0E75
:0E0D92001203EDD0D0D082D083D0F0D0E0326A
:100957008E7B8F7CAB05AA04C2E8C2E9C2EA7C039E
:100967007DE8120D6475A0FFD2E8C2E9C2EAAE7B4A
:10097700AF7C7C007D641203547C007D0A12035413
:1009870074562DF582740D120D7575A0FFC2E8D24D
:10099700E9C2EAAE7BAF7C7C007D0A120D6475A0CC
:1009A700FFD2E8D2E9C2EAAE7BAF7C120D6775A031
:1009B700FFC2E8C2E9D2EA7C037DE8120D6075A0A8
:1009C700FFD2E8C2E9D2EA7C007D64AF03AE02122F
:1009D70003547C007D0A12035474562DF582740D5E
:1009E700120D7575A0FFC2E8D2E9D2EA7C007D0A34
:1009F700120D6075A0FFD2E8D2E9D2EAAE02AF03CA
:070A0700120D6775A0FF222C
:1007AC00AC43AD44E412029AAB30AA2FA92EA82D6B
:1007BC0012021C5070AC43AD44E412029AA804A976
:1007CC0005AA06AB07AF30AE2FAD2EAC2D12002113
:1007DC00E4FBFA798078BF12021C6002502AAC4309
:1007EC00AD44E412029AA804A905AA06AB07AF30DF
:1007FC00AE2FAD2EAC2D120021E4FBFA7980783FA0
:10080C0012021C400302089DC3E52B94B0E52A6438
:10081C008094844007752A04752BB022052BE52B98
:10082C007002052A22AC43AD44E412029AA804A932
:10083C0005AA06AB07AF30AE2FAD2EAC2D120021A2
:10084C00E4FBFA798078BF12021C60025027AC439B
:10085C00AD44E412029AA804A905AA06AB07AF306E
:10086C00AE2FAD2EAC2D120021E4FBFA7980783F2F
:10087C0012021C501CD3E52B940AE52A6480948048
:10088C005007752A00752B0A22E52B152B700215C3
:02089C002A220E
:100BA800E4F526F525F524F523F542F541F540F55C
:100BB8003FF54DF54CF54BF54AF558F557F556F513
:100BC80055F561F560F55FF55EF554F553F552F5A9
:100BD80051F548F547F54675453F753EBD753D37B6
:100BE800753C86753B35753A6F753912753883755E
:030BF800373A2267
:10089E008F268E258D248C2385174285164185152E
:1008AE004085143FAB42AA41A940A83F1200218FB8
:1008BE004D8E4C8D4B8C4AAF54AE53AD52AC51ABAA
:1008CE004DAA4CA94BA84A1200258F548E538D5217
:1008DE008C51AB3EAA3DA93CA83B120116C004C0E8
:1008EE0005C006C007AF4DAE4CAD4BAC4AAB48AAE7
:1008FE0047A946A845120116D003D002D001D00058
:10090E00120025C004C005C006C007AB58AA57A9DF
:10091E0056A855AF4DAE4CAD4BAC4A120021AB3A7A
:10092E00AA39A938A837120116D003D002D001D0A7
:10093E00001200258F368E358D348C33854D5885BB
:09094E004C57854B56854A552291
:100BFB00C3E5679484E56664809483400675660359
:100C0B00756784D3E5679400E5666480948050052E
:100C1B00E4F566F567C3E52B94B0E52A648094840C
:100C2B004006752A04752BB0D3E52B9400E52A6496
:0B0C3B008094805005E4F52AF52B2280
:100B3C00120DE1120003120BA8120C907527008FF6
:100B4C0028AC27AD28E412029A7B487AE179FA782E
:100B5C003F1201168F308E2F8D2E8C2DAE66AF6707
:100B6C007C007D021203A98E438F44AC27AD28E490
:100B7C0012029A7B487AE1797A78401201168F65D5
:100B8C008E648D638C621202D3AD07AC06AF67AE78
:0C0B9C00661209571207AC120BFB809D7B
:100C6E00017600016A00016B00017A000272000039
:100C7E0002770000016D00016C000179000268002E
:010C8E000065
:100D0C00D290D291D292EF7004F57A8003757A0169
:100D1C00A290E433F56AA291E433F56BE4F572F535
:0C0D2C0073F577F578F56DF56CF579221C
:100A0E00E4FFE57A7017A29033656A7003020A9BC1
:100A1E0020906E3091030F80687FFF8064A290E477
:100A2E0033656A606830902EE56BB4010520910243
:100A3E007F01E56B70053091027FFFA291E433B523
:100A4E006B052091027F01A291E433656B70323009
:100A5E00912F7FFF802BE56BB401052091027FFF64
:100A6E00E56B70053091027F01A291E433B56B0501
:100A7E002091027FFFA291E433B56B053091027F86
:100A8E0001A290E433F56AA291E433F56B20921142
:100A9E00EF70047F02800ABF01027F03BFFF027F57
:010AAE00FD4A
:010AAF002224
:1003ED00E4FBEF64016003020501E57624FE60364F
:1003FD0014605114607114700302049F240460038F
:10040D000204F6740A256FF56FE4356EF56ED3E5CB
:10041D006F94FFE56E6480948050030204F6E4F55A
:10042D006EF56F0204F6740A2571F571E43570F5F9
:10043D0070D3E56F94FFE56E6480948050030204E1
:10044D00F60204F1740A2575F575E43574F574D367
:10045D00E56F94FFE56E6480948050030204F6E42A
:10046D00F574F5750204F6740A256FF56FE4356EB3
:10047D00F56ED3E56F94FFE56E648094804005E4DE
:10048D00F56EF56FAC6EAD6F8C708D718C748D7566
:10049D0080577414256FF56FE4356EF56EC3E56FF7
:1004AD0094FFE56E64809480403FE4F56EF56F74C3
:1004BD00142575F575E43574F574C3E57594FFE58C
:1004CD0074648094804022E4F574F575741425717C
:1004DD00F571E43570F570C3E57194FFE5706480D6
:1004ED0094804005E4F570F57174642567F567E453
:1004FD003566F566EFF460030205E7E57624FE60E8
:10050D002814603D146055146079240460030205BD
:10051D00DB74F6256FF56F74FF356EF56EC3648071
:10052D00948040030205DB802B74F62571F5717400
:10053D00FF3570F570C36480948040030205DB8045
:10054D001374F62575F57574FF3574F574C36480F1
:10055D009480507A756E00756FFF807274F6256FFA
:10056D00F56F74FF356EF56EC3648094805006751B
:10057D006E00756FFFAC6EAD6F8C708D718C748D60
:10058D0075804B74EC256FF56F74FF356EF56EC38A
:10059D00648094805038756E00756FFF74EC25750E
:1005AD00F57574FF3574F574C364809480501F75B0
:1005BD0074007575FF74EC2571F57174FF3570F568
:1005CD0070C36480948050067570007571FF749CC3
:1005DD002567F56774FF3566F566BF030B740F2548
:1005ED0067F567E43566F566BFFD0C74F12567F5B3
:1005FD006774FF3566F566EF64027050C3E573945A
:10060D0010E572648094A750080573E573700205B8
:10061D0072E573641445727003756D01D3E57894BA
:10062D0000E577648094804010D3E5789496E57763
:10063D00648094805003757901E57364587004E506
:10064D007264027071756C01F56D806AC3E5739407
:10065D0014E572648094805011E4F572F573F56DB4
:10066D00F56CF579F577F578804CE56D6401703EA4
:10067D00E5797011C3E5776480948040080578E5CD
:10068D007870020577E579B40110D3E5789496E595
:10069D0077648094805003757902E5797010D3E505
:1006AD00789496E577648094804003E4F56DE56C6D
:1006BD00B40103E4F56CD3E5739414E5726480948E
:1006CD008050030207A9E56D7032D3E5789496E565
:1006DD0077648094804025E5739458E57264809426
:1006ED008250190576E576C3940440037576017B37
:1006FD0001E4F572F573F577F578F579E57964022E
:10070D007043D3E5789400E577648094804036D3C8
:10071D00E5789496E577648094805029E576B40564
:10072D0003E4F576E576B40403757605E576C394B2
:10073D000450037576047B02E4F572F573F577F5D5
:10074D0078F56DF579E56CB40129C3E5739458E539
:10075D007264809482401C0569E56970020568AE7B
:10076D0068FF7C007DC8120354ED4C7006F568F5EA
:10077D00697B04E56C7025C3E5739458E57264805C
:10078D0094824018E4F576F56E756F20F5707571ED
:0E079D0020F5747575207B03F572F573AF03BC
:0107AB00222B
:050DDB00007F16DFFEA1
:010DE00022F0
:0B000E00120DDBD2B5120DDBC2B522D3
:100C9000E4FEFDC293D29412000EC29412000EC262
:100CA0009412000ED294FC12000EEE25E0FE309558
:100CB000034306010CBC08EFE4FCEDC313FD3095C3
:100CC0000343058012000E0CBC08EFD293EEB5056D
:060CD00003FF80027F001B
:010CD60022FB
:10001E0002033FE86480F8E933E83360110460F0CE
:10002E00ED33EC337009E8FCE9FDEAFEEBFF220448
:10003E0060DED3EB9FEA9EE99DE8C2E78CF0C2F743
:10004E0095F0400CE8CCF8E9CDF9EACEFAEBCFFB0F
:10005E0012030A85D0F05804700320D5B3E804705B
:10006E00075002B2D502034992D5EC0460F7E4CCF6
:10007E00C0E0C398F8603B94186008400DD0E0FBD8
:10008E00020321E4FBFAC9FC8028E830E406E4C947
:10009E00FBE4CAFCE830E305E4C9CACBFCE854072C
:1000AE006010F8C3E913F9EA13FAEB13FBEC13FC37
:1000BE00D8F130F52FC3E49CFCEF9BFFEE9AFEEDDA
:1000CE0099FDD0E0FBEF4E4D4C701222DB03020384
:1000DE0046EC2CFCEF33FFEE33FEED33FDED30E757
:1000EE00EB020321EF2BFFEE3AFEED39FDD0E0FBE4
:1000FE0050130BBB0003020349ED13FDEE13FEEF8D
:08010E0013FFEC13FC020321B6
:10011600EC4D6011E8497017ED33EC3304600DE4E3
:10012600FCFFFEFD22E933E8330470F802033F12B8
:10013600030A58046009E4CC2481500628500902B9
:100146000349284003020346C0E0EB4A7044B980E5
:1001560006D0E0FB020335EF4E701CBD8008EBFFB6
:10016600EAFEE9FD80EBE98DF0A4FEE5F00201FF71
:10017600E9CDF9EAFEEBFFEF89F0A4FCE5F0CE89C4
:10018600F0A42EFFE435F0CD89F0A42DFEE435F081
:100196008067EF4E7005BD80D780C3EF8BF0A4ACAF
:1001A600F0EE8BF0A42CFCE435F0F8EF8AF0A42CEA
:1001B600E5F038FCE433CB8DF0A42CFCE5F03BF8FD
:1001C600EE8AF0A42CFCE5F038F8E433CF89F0A4ED
:1001D6002CFCE5F038CF3400CE89F0A42FFFE5F0F3
:1001E6003EFEE433C98DF0A42EFEE5F039CD8AF04B
:1001F600A42FFFE5F03EFEE43DFD33D0E0FB5007C3
:100206000BBB000F020349EC2CFCEF33FFEE33FE71
:06021600ED33FD0203219F
:10021C0074F8CC6480CCC86480C8F58204604FC389
:10022C00EB9FF5F0EA9E42F0E99D42F0E89C45F028
:10023C00603C501DE5825FFFE582D313CB5BCBF4B2
:10024C002B5582FB50280ABA002409B900200880DB
:10025C001DE5825BFBE582D313CF5FCFF4C3132F75
:10026C005582FF50090EBE00050DBD00010CC3EBFD
:10027C009FF5F0EA9E42F0E99D42F0E89C45F06063
:09028C0007CC4820E701B3EC2285
:1002950075F020800E75F010800575F0087D007EE4
:1002A500007F003392D530D5031203DFEC334010C5
:1002B500EF33FFEE33FEED33FDEC33FCD5F0ED22ED
:0E02C500E5F0247EA2D513CC92E7CDCEFF2229
:1002D300EDD2E7CD33EC3392D524814006E4FFFE23
:1002E300FDFC22FCE4CFCECDCC24E0501174FF8082
:1002F300EDC3CC13CCCD13CDCE13CECF13CF04701F
:07030300F030D5DE0203DF3C
:10030A00E9D2E7C933E833F892D5EDD2E7CD33EC39
:07031A0033FC5002B2D522B2
:10032100EC30E7100FBF000C0EBE00080DBD00043D
:100331000BEB6014A2D5EB13FCED92E7FD2274FFE9
:10034100FCFDFEFF22E480F8A2D574FF13FC7D8042
:03035100E480EF56
:100ABC00020B3CE493A3F8E493A34003F68001F209
:100ACC0008DFF48029E493A3F85407240CC8C3333B
:100ADC00C4540F4420C8834004F456800146F6DF0A
:100AEC00E4800B0102040810204080900C46E47E48
:100AFC00019360BCA3FF543F30E509541FFEE493FF
:100B0C00A360010ECF54C025E060A840B8E493A3C5
:100B1C00FAE493A3F8E493A3C8C582C8CAC583CAF0
:100B2C00F0A3C8C582C8CAC583CADFE9DEE780BEA8
:010C8F000064
:10035400BC000BBE0029EF8DF084FFADF022E4CC8D
:10036400F875F008EF2FFFEE33FEEC33FCEE9DEC56
:10037400984005FCEE9DFE0FD5F0E9E4CEFD22ED9C
:10038400F8F5F0EE8420D21CFEADF075F008EF2FE6
:10039400FFED33FD4007985006D5F0F222C398FDD7
:0503A4000FD5F0EA2274
:1003A900C2D5EC30E709B2D5E4C39DFDE49CFCEE6F
:1003B90030E715B2D5E4C39FFFE49EFE120354C390
:1003C900E49DFDE49CFC800312035430D507C3E48B
:0603D9009FFFE49EFE22DE
:0E03DF00C3E49FFFE49EFEE49DFDE49CFC222F
:00000001FF
