:030000000206F104
:0C06F100787FE4F6D8FD758142020738DE
:10089A00C0F9A4B0999282F88090FFC68C883F066E
:1008AA005B4F666D7D077F6F777C395E7971407922
:0808BA0024301912027800102D
:10077D00013C00013400013500014000023A000047
:10078D00023D0000013900013700013F00013864CE
:07079D00024101F4013301E8
:100907005389F0438901758AE0758CB1C28DD28C09
:05091700D2A9D2AF22BD
:030948000209079A
:10093100C374FF9FFF74FF9EC28C8F8AF58CD28C8B
:010941002293
:03000B0002080DDB
:07080D00C0E0C0D075D00867
:10081400E53324FE600E04701EC296AF42AE411250
:1008240009318013D296C374B09542FF7404954184
:09083400FE120931753300053391
:05083D00D0D0D0E03234
:10091C00538EBF53890F758B24758DFAC28FD28E6F
:05092C00D2ABD2AF22A6
:0800030012091CE4FF02086E63
:03001B000208E9EF
:1008E900C0E0C0F0C083C082C0D075D01812064FD6
:0E08F90012001ED0D0D082D083D0F0D0E032DA
:1008C200AF03AE021205357C007D0A120535749A1B
:0C08D2002DF58274083CF583E493F5A03A
:0A08DE0000007F067E5DDEFEDFFCF9
:0108E80022ED
:100598008E108F11AB05AA04C2E8C2E9C2EA7C0337
:1005A8007DE81208C675A0FFD2E8C2E9C2EAAE101B
:1005B800AF117C007D641205357C007D0A1205357B
:1005C80074B82DF58274081208D775A0FFC2E8D256
:1005D800E9C2EAAE10AF117C007D0A1208C675A008
:1005E800FFD2E8D2E9C2EAAE10AF111208C975A06D
:1005F800FFC2E8C2E9D2EA7C037DE81208C275A00E
:10060800FFD2E8C2E9D2EA7C007D64AF03AE0212F1
:1006180005357C007D0A12053574B82DF5827408FD
:100628001208D775A0FFC2E8D2E9D2EA7C007D0A99
:100638001208C275A0FFD2E8D2E9D2EAAE02AF032F
:070648001208C975A0FF2292
:10084200120948120003AC36E41204807B9A7A99AA
:100852007959783E1203D91204B4AD07AC06AF42FF
:0C086200AE411205981207C68F3680DAEE
:1007A400012E00012200012300013200022A000070
:1007B400022F000001250001240001310002200065
:0107C4000034
:10086E00D290D291D292EF7004F53280037532019C
:10087E00A290E433F522A291E433F523E4F52AF5B0
:0C088E002BF52FF530F525F524F531226F
:10064F00E4FFE5327017A29033652270030206DCD7
:10065F0020906E3091030F80687FFF8064A290E43A
:10066F00336522606830902EE523B4010520910296
:10067F007F01E52370053091027FFFA291E433B52E
:10068F0023052091027F01A291E43365237032305C
:10069F00912F7FFF802BE523B401052091027FFF6F
:1006AF00E52370053091027F01A291E433B5230554
:1006BF002091027FFFA291E433B523053091027F91
:1006CF0001A290E433F522A291E433F52320921195
:1006DF00EF70047F02800ABF01027F03BFFF027F1A
:0106EF00FD0D
:0106F00022E7
:10001E00E4FBEF64016003020132E52E24FE60363C
:10002E001460511460711470030200D02404600334
:10003E00020127740A2527F527E43526F526D3E590
:10004E002794FFE526648094805003020127E4F58F
:10005E0026F527020127740A2529F529E43528F506
:10006E0028D3E52794FFE52664809480500302018F
:10007E0027020122740A252DF52DE4352CF52CD3FB
:10008E00E52794FFE526648094805003020127E45F
:10009E00F52CF52D020127740A2527F527E43526C0
:1000AE00F526D3E52794FFE526648094804005E489
:1000BE00F526F527AC26AD278C288D298C2C8D2D79
:1000CE00805774142527F527E43526F526C3E52732
:1000DE0094FFE52664809480403FE4F526F527746E
:1000EE0014252DF52DE4352CF52CC3E52D94FFE5C7
:1000FE002C648094804022E4F52CF52D741425296F
:10010E00F529E43528F528C3E52994FFE528648010
:10011E0094804005E4F528F52974642542F542E4FF
:10012E003541F541EFF46003020218E52E24FE601E
:10013E002814603D14605514607924046003020293
:10014E000C74F62527F52774FF3526F526C3648033
:10015E009480400302020C802B74F62529F5297435
:10016E00FF3528F528C364809480400302020C807A
:10017E001374F6252DF52D74FF352CF52CC36480E4
:10018E009480507A7526007527FF807274F62527A5
:10019E00F52774FF3526F526C364809480500675C6
:1001AE0026007527FFAC26AD278C288D298C2C8D2B
:1001BE002D804B74EC2527F52774FF3526F526C3C5
:1001CE006480948050387526007527FF74EC252DB9
:1001DE00F52D74FF352CF52CC364809480501F755B
:1001EE002C00752DFF74EC2529F52974FF3528F5A3
:1001FE0028C36480948050067528007529FF749C6E
:10020E002542F54274FF3541F541BF03080542E52D
:10021E004270020541BFFD08E542154270021541CC
:10022E00EF64027050C3E52B9410E52A648094A706
:10023E005008052BE52B7002052AE52B6414452A80
:10024E007003752501D3E5309400E52F648094800A
:10025E004010D3E5309496E52F648094805003755A
:10026E003101E52B64587004E52A6402707175241F
:10027E0001F525806AC3E52B9414E52A64809480E9
:10028E005011E4F52AF52BF525F524F531F52FF56A
:10029E0030804CE5256401703EE5317011C3E52FC9
:1002AE006480948040080530E5307002052FE531FA
:1002BE00B40110D3E5309496E52F648094805003FA
:1002CE00753102E5317010D3E5309496E52F6480D8
:1002DE0094804003E4F525E524B40103E4F524D32A
:1002EE00E52B9414E52A6480948050030203D3E531
:1002FE00257032D3E5309496E52F648094804025A6
:10030E00E52B9458E52A648094825019052EE52E2B
:10031E00C394044003752E017B01E4F52AF52BF5F9
:10032E002FF530F531E53164027043D3E53094009A
:10033E00E52F648094804036D3E5309496E52F64A3
:10034E008094805029E52EB40503E4F52EE52EB4F5
:10035E000403752E05E52EC394045003752E047BFD
:10036E0002E4F52AF52BF52FF530F525F531E524C8
:10037E00B40129C3E52B9458E52A64809482401C6D
:10038E000521E52170020520AE20FF7C007DC812FC
:10039E000535ED4C7006F520F5217B04E52470251E
:1003AE00C3E52B9458E52A648094824018E4F52E18
:1003BE00F526752720F528752920F52C752D207B1F
:0703CE0003F52AF52BAF0334
:0103D5002205
:05094200007F16DFFE3E
:01094700228D
:0B000E00120942D2B5120942C2B5220D
:1007C600E4FEFDC293D29412000ED29412000EC221
:1007D6009412000ED294FC12000EEE25E0FE309527
:1007E600034306010CBC08EFE4FCEDC313FD309592
:1007F6000343058012000E0CBC08EFD293EEB5053C
:0608060003FF80027F00E9
:01080C0022C9
:1003D60002052AEC5D046005E85904700302052055
:1003E6001204EB580460F6EC4860F2EC7004FDFE73
:1003F600FF22C860DB2481C85009C39860025006FA
:100406000205279850CAF582E9294B4A7005AB8246
:1004160002051675F0007C1A7880C3EF9BEE9AED04
:1004260099400DC3EF9BFFEE9AFEED99FDE842F071
:10043600DC23ACF0D0E0FFD0E0FED0E0FDAB8220C4
:10044600E7101BEB60BAEC2CFCEF33FFEE33FEED4E
:1004560033FD020502E803F830E705C0F075F00049
:10046600EF2FFFEE33FEED33FD40B830E7C280AA32
:1004760075F020800E75F010800575F0087D007E01
:10048600007F003392D530D50312058AEC33401035
:10049600EF33FFEE33FEED33FDEC33FCD5F0ED220A
:0E04A600E5F0247EA2D513CC92E7CDCEFF2246
:1004B400EDD2E7CD33EC3392D524814006E4FFFE40
:1004C400FDFC22FCE4CFCECDCC24E0501174FF809F
:1004D400EDC3CC13CCCD13CDCE13CECF13CF04703C
:0704E400F030D5DE02058AAD
:1004EB00E9D2E7C933E833F892D5EDD2E7CD33EC57
:0704FB0033FC5002B2D522D0
:10050200EC30E7100FBF000C0EBE00080DBD00045A
:100512000BEB6014A2D5EB13FCED92E7FD2274FF06
:10052200FCFDFEFF22E480F8A2D574FF13FC7D805F
:03053200E480EF73
:1006FD00020842E493A3F8E493A34003F68001F2C9
:10070D0008DFF48029E493A3F85407240CC8C333FD
:10071D00C4540F4420C8834004F456800146F6DFCC
:10072D00E4800B010204081020408090077DE47ED8
:10073D00019360BCA3FF543F30E509541FFEE493C1
:10074D00A360010ECF54C025E060A840B8E493A388
:10075D00FAE493A3F8E493A3C8C582C8CAC583CAB3
:10076D00F0A3C8C582C8CAC583CADFE9DEE780BE6B
:0107C5000033
:10053500BC000BBE0029EF8DF084FFADF022E4CCAA
:10054500F875F008EF2FFFEE33FEEC33FCEE9DEC73
:10055500984005FCEE9DFE0FD5F0E9E4CEFD22EDB9
:10056500F8F5F0EE8420D21CFEADF075F008EF2F03
:10057500FFED33FD4007985006D5F0F222C398FDF4
:050585000FD5F0EA2291
:0E058A00C3E49FFFE49EFEE49DFDE49CFC2282
:00000001FF
