:030000000205F501
:0C05F500787FE4F6D8FD75814802063CD2
:1007DA00C0F9A4B0999282F88090FFC68C883F062F
:1007EA005B4F666D7D077F6F777C395E79714079E3
:0807FA002430191202780010EE
:1006E800012F00012100012200013300022B00002C
:1006F8000230000001280001250001320002260016
:08070800640234014A012001E2
:10080200AF03AE021206937C007D0A12069374DADD
:0C0812002DF58274073CF583E493F5A0FB
:05081E00007FF7DFFE82
:0108230022B2
:10085C005389F0438901758AE0758CB1C28DD28CB5
:05086C00D2A9D2AF2269
:03089D0002085CF2
:10088600C374FF9FFF74FF9EC28C8F8AF58CD28C37
:01089600223F
:03000B0002077970
:07077900C0E0C0D075D008FC
:10078000E52024FE600E04701EC296AF27AE26122E
:1007900008868013D296C374B09527FF74049526FB
:0907A000FE1208867520000520F8
:0507A900D0D0D0E032C9
:10087100538EBF53890F758B24758DFAC28FD28E1B
:05088100D2ABD2AF2252
:08000300120871E4FF0207AED0
:03001B00020824B4
:10082400C0E0C0F0C083C082C0D075D01812055398
:0E08340012002ED0D0D082D083D0F0D0E0328F
:10084200E4F5C9F5C875CC9C75CDFF75CA9C75CB0E
:0A085200FFD2CAC2BDD2ADD2AF2260
:03002B0002000EC2
:0B000E00C2CA75CA9C75CBFFD2CA3273
:1003E6008E108F11AB05AA04C2E8C2E9C2EA7C03EB
:1003F6007DE812080675A0FFD2E8C2E9C2EAAE108F
:10040600AF117C007D641206937C007D0A12069370
:1004160074F82DF582740712081775A0FFC2E8D28A
:10042600E9C2EAAE10AF117C007D0A12080675A07B
:10043600FFD2E8D2E9C2EAAE10AF1112080975A0E0
:10044600FFC2E8C2E9D2EA7C037DE812080275A081
:10045600FFD2E8C2E9D2EA7C007D64AF03AE0212A5
:1004660006937C007D0A12069374F82DF5827407B4
:1004760012081775A0FFC2E8D2E9D2EA7C007D0A0D
:1004860012080275A0FFD2E8D2E9D2EAAE02AF03A3
:0704960012080975A0FF2206
:10049D0012089D120003AD2AAC29AF2EAE2D12030A
:1004AD00E61207327523008F2485342D85352EAE47
:1004BD00237C007D641206817D331206938E298F75
:1004CD002AD3E52E952AE5296480F8E52D648098D8
:1004DD004035E52A9535FFE5299534FEC3EF94FEA9
:1004ED00EE94FF4009D3EF9402EE940040A8052747
:1004FD00E52770020526D3940AE5269400509775DA
:10050D00260075270A808FC3E52A9535FFE52995C5
:10051D0034FEC3EF94FEEE94FF400CD3EF9402EE45
:10052D00940050030204A3E527152770021526C376
:10053D00E52794B0E526940450030204A375260420
:06054D007527B00204A3B3
:100710000144000138000139000148000240000096
:1007200002450000013B00013A000147000236008B
:0107300000C8
:1007AE00D290D291D292EF7004F548800375480131
:1007BE00A290E433F538A291E433F539E4F540F52F
:0C07CE0041F545F546F53BF53AF54722AC
:10055300E4FFE5487017A29033653870030205E0A5
:1005630020906E3091030F80687FFF8064A290E437
:10057300336538606830902EE539B4010520910267
:100583007F01E53970053091027FFFA291E433B515
:1005930039052091027F01A291E43365397032302D
:1005A300912F7FFF802BE539B401052091027FFF56
:1005B300E53970053091027F01A291E433B5390525
:1005C3002091027FFFA291E433B539053091027F78
:1005D30001A290E433F538A291E433F53920921166
:1005E300EF70047F02800ABF01027F03BFFF027F17
:0105F300FD0A
:0105F40022E4
:10002E00E4FBEF64016003020142E54424FE603606
:10003E001460511460711470030200E02404600314
:10004E00020137740A253DF53DE4353CF53CD3E518
:10005E003D94FFE53C648094805003020137E4F543
:10006E003CF53D020137740A253FF53FE4353EF578
:10007E003ED3E53D94FFE53C64809480500302013D
:10008E0037020132740A2543F543E43542F542D373
:10009E00E53D94FFE53C648094805003020137E413
:1000AE00F542F543020137740A253DF53DE4353C32
:1000BE00F53CD3E53D94FFE53C648094804005E437
:1000CE00F53CF53DAC3CAD3D8C3E8D3F8C428D43B9
:1000DE0080577414253DF53DE4353CF53CC3E53DB4
:1000EE0094FFE53C64809480403FE4F53CF53D741C
:1000FE00142543F543E43542F542C3E54394FFE549
:10010E0042648094804022E4F542F5437414253F06
:10011E00F53FE4353EF53EC3E53F94FFE53E648092
:10012E0094804005E4F53EF53F74642535F535E4DD
:10013E003534F534EFF46003020228E54424FE6002
:10014E002814603D14605514607924046003020283
:10015E001C74F6253DF53D74FF353CF53CC36480BB
:10016E009480400302021C802B74F6253FF53F74E9
:10017E00FF353EF53EC364809480400302021C802E
:10018E001374F62543F54374FF3542F542C364807C
:10019E009480507A753C00753DFF807274F6253D53
:1001AE00F53D74FF353CF53CC36480948050067574
:1001BE003C00753DFFAC3CAD3D8C3E8D3F8C428D81
:1001CE0043804B74EC253DF53D74FF353CF53CC347
:1001DE00648094805038753C00753DFF74EC254367
:1001EE00F54374FF3542F542C364809480501F7509
:1001FE0042007543FF74EC253FF53F74FF353EF525
:10020E003EC3648094805006753E00753FFF749C1B
:10021E002535F53574FF3534F534BF03080535E55E
:10022E003570020534BFFD08E535153570021534FD
:10023E00EF64027050C3E5419410E540648094A7CA
:10024E0050080541E54170020540E5416414454002
:10025E007003753B01D3E5469400E54564809480B8
:10026E004010D3E5469496E545648094805003751E
:10027E004701E54164587004E54064027071753AB7
:10028E0001F53B806AC3E5419414E5406480948097
:10029E005011E4F540F541F53BF53AF547F545F5D6
:1002AE0046804CE53B6401703EE5477011C3E54561
:1002BE006480948040080546E54670020545E54792
:1002CE00B40110D3E5469496E545648094805003BE
:1002DE00754702E5477010D3E5469496E545648070
:1002EE0094804003E4F53BE53AB40103E4F53AD3D8
:1002FE00E5419414E5406480948050030203E3E5E5
:10030E003B7032D3E5469496E54564809480402553
:10031E00E5419458E5406480948250190544E544C3
:10032E00C3940440037544017B01E4F540F541F5A7
:10033E0045F546F547E54764027043D3E54694001C
:10034E00E545648094804036D3E5469496E5456451
:10035E008094805029E544B40503E4F544E544B4A3
:10036E000403754405E544C3940450037544047BAB
:10037E0002E4F540F541F545F546F53BF547E53A1E
:10038E00B40129C3E5419458E54064809482401C31
:10039E000537E53770020536AE36FF7C007DC81294
:1003AE000693ED4C7006F536F5377B04E53A70256D
:1003BE00C3E5419458E540648094824018E4F544C6
:1003CE00F53C753D20F53E753F20F5427543207B8B
:0703DE0003F540F541AF03F8
:0103E50022F5
:05089700007F16DFFEEA
:01089C002239
:0B001E00120897D2B5120897C2B52255
:10073200E4FEFDC293D29412001ED29412001EC295
:100742009412001ED294FC12001EEE25E0FE30959B
:10075200034306010CBC08EFE4FCEDC313FD309526
:100762000343058012001E0CBC08EFD293EEB505C0
:0607720003FF80027F007E
:01077800225E
:1006010002049DE493A3F8E493A34003F68001F26E
:1006110008DFF48029E493A3F85407240CC8C333FA
:10062100C4540F4420C8834004F456800146F6DFC9
:10063100E4800B01020408102040809006E8E47E6B
:10064100019360BCA3FF543F30E509541FFEE493BE
:10065100A360010ECF54C025E060A840B8E493A385
:10066100FAE493A3F8E493A3C8C582C8CAC583CAB0
:10067100F0A3C8C582C8CAC583CADFE9DEE780BE68
:0107310000C7
:10068100EF8DF0A4A8F0CF8CF0A428CE8DF0A42E8D
:02069100FE2247
:10069300BC000BBE0029EF8DF084FFADF022E4CC4B
:1006A300F875F008EF2FFFEE33FEEC33FCEE9DEC14
:1006B300984005FCEE9DFE0FD5F0E9E4CEFD22ED5A
:1006C300F8F5F0EE8420D21CFEADF075F008EF2FA4
:1006D300FFED33FD4007985006D5F0F222C398FD95
:0506E3000FD5F0EA2232
:00000001FF
